{
  "contractName": "KittyMarketPlace",
  "abi": [
    {
      "inputs": [
        {
          "internalType": "address",
          "name": "_kittyContractAddress",
          "type": "address"
        }
      ],
      "stateMutability": "nonpayable",
      "type": "constructor"
    },
    {
      "anonymous": false,
      "inputs": [
        {
          "indexed": false,
          "internalType": "string",
          "name": "TxType",
          "type": "string"
        },
        {
          "indexed": false,
          "internalType": "address",
          "name": "owner",
          "type": "address"
        },
        {
          "indexed": false,
          "internalType": "uint256",
          "name": "tokenId",
          "type": "uint256"
        }
      ],
      "name": "MarketTransaction",
      "type": "event"
    },
    {
      "anonymous": false,
      "inputs": [
        {
          "indexed": true,
          "internalType": "address",
          "name": "previousOwner",
          "type": "address"
        },
        {
          "indexed": true,
          "internalType": "address",
          "name": "newOwner",
          "type": "address"
        }
      ],
      "name": "OwnershipTransferred",
      "type": "event"
    },
    {
      "inputs": [
        {
          "internalType": "uint256",
          "name": "",
          "type": "uint256"
        }
      ],
      "name": "offers",
      "outputs": [
        {
          "internalType": "address payable",
          "name": "seller",
          "type": "address"
        },
        {
          "internalType": "uint256",
          "name": "price",
          "type": "uint256"
        },
        {
          "internalType": "uint256",
          "name": "index",
          "type": "uint256"
        },
        {
          "internalType": "uint256",
          "name": "tokenId",
          "type": "uint256"
        },
        {
          "internalType": "bool",
          "name": "active",
          "type": "bool"
        }
      ],
      "stateMutability": "view",
      "type": "function",
      "constant": true
    },
    {
      "inputs": [],
      "name": "owner",
      "outputs": [
        {
          "internalType": "address",
          "name": "",
          "type": "address"
        }
      ],
      "stateMutability": "view",
      "type": "function",
      "constant": true
    },
    {
      "inputs": [],
      "name": "renounceOwnership",
      "outputs": [],
      "stateMutability": "nonpayable",
      "type": "function"
    },
    {
      "inputs": [
        {
          "internalType": "address",
          "name": "newOwner",
          "type": "address"
        }
      ],
      "name": "transferOwnership",
      "outputs": [],
      "stateMutability": "nonpayable",
      "type": "function"
    },
    {
      "inputs": [
        {
          "internalType": "address",
          "name": "_kittyContractAddress",
          "type": "address"
        }
      ],
      "name": "setKittyContract",
      "outputs": [],
      "stateMutability": "nonpayable",
      "type": "function"
    },
    {
      "inputs": [
        {
          "internalType": "uint256",
          "name": "_tokenId",
          "type": "uint256"
        }
      ],
      "name": "getOffer",
      "outputs": [
        {
          "internalType": "address",
          "name": "seller",
          "type": "address"
        },
        {
          "internalType": "uint256",
          "name": "price",
          "type": "uint256"
        },
        {
          "internalType": "uint256",
          "name": "index",
          "type": "uint256"
        },
        {
          "internalType": "uint256",
          "name": "tokenId",
          "type": "uint256"
        },
        {
          "internalType": "bool",
          "name": "active",
          "type": "bool"
        }
      ],
      "stateMutability": "view",
      "type": "function",
      "constant": true
    },
    {
      "inputs": [],
      "name": "getAllTokenOnSale",
      "outputs": [
        {
          "internalType": "uint256[]",
          "name": "listOfOffers",
          "type": "uint256[]"
        }
      ],
      "stateMutability": "view",
      "type": "function",
      "constant": true
    },
    {
      "inputs": [
        {
          "internalType": "address",
          "name": "_address",
          "type": "address"
        },
        {
          "internalType": "uint256",
          "name": "_tokenId",
          "type": "uint256"
        }
      ],
      "name": "_ownsKitty",
      "outputs": [
        {
          "internalType": "bool",
          "name": "",
          "type": "bool"
        }
      ],
      "stateMutability": "view",
      "type": "function",
      "constant": true
    },
    {
      "inputs": [
        {
          "internalType": "address",
          "name": "_address",
          "type": "address"
        },
        {
          "internalType": "uint256",
          "name": "_tokenId",
          "type": "uint256"
        }
      ],
      "name": "_ownerOf",
      "outputs": [
        {
          "internalType": "address",
          "name": "",
          "type": "address"
        }
      ],
      "stateMutability": "view",
      "type": "function",
      "constant": true
    },
    {
      "inputs": [
        {
          "internalType": "uint256",
          "name": "_price",
          "type": "uint256"
        },
        {
          "internalType": "uint256",
          "name": "_tokenId",
          "type": "uint256"
        }
      ],
      "name": "setOffer",
      "outputs": [],
      "stateMutability": "nonpayable",
      "type": "function"
    },
    {
      "inputs": [
        {
          "internalType": "uint256",
          "name": "_tokenId",
          "type": "uint256"
        }
      ],
      "name": "removeOffer",
      "outputs": [],
      "stateMutability": "nonpayable",
      "type": "function"
    },
    {
      "inputs": [
        {
          "internalType": "uint256",
          "name": "_tokenId",
          "type": "uint256"
        }
      ],
      "name": "buyKitty",
      "outputs": [],
      "stateMutability": "payable",
      "type": "function",
      "payable": true
    }
  ],
  "bytecode": "0x60806040523480156200001157600080fd5b50604051620020ea380380620020ea833981810160405281019062000037919062000260565b620000576200004b6200006f60201b60201c565b6200007760201b60201c565b62000068816200013b60201b60201c565b506200034f565b600033905090565b60008060009054906101000a900473ffffffffffffffffffffffffffffffffffffffff169050816000806101000a81548173ffffffffffffffffffffffffffffffffffffffff021916908373ffffffffffffffffffffffffffffffffffffffff1602179055508173ffffffffffffffffffffffffffffffffffffffff168173ffffffffffffffffffffffffffffffffffffffff167f8be0079c531659141344cd1fd0a4f28419497f9722a3daafe3b4186f6b6457e060405160405180910390a35050565b6200014b6200018f60201b60201c565b80600160006101000a81548173ffffffffffffffffffffffffffffffffffffffff021916908373ffffffffffffffffffffffffffffffffffffffff16021790555050565b6200019f6200006f60201b60201c565b73ffffffffffffffffffffffffffffffffffffffff16620001c56200022060201b60201c565b73ffffffffffffffffffffffffffffffffffffffff16146200021e576040517f08c379a00000000000000000000000000000000000000000000000000000000081526004016200021590620002ce565b60405180910390fd5b565b60008060009054906101000a900473ffffffffffffffffffffffffffffffffffffffff16905090565b6000815190506200025a8162000335565b92915050565b6000602082840312156200027357600080fd5b6000620002838482850162000249565b91505092915050565b60006200029b602083620002f0565b91507f4f776e61626c653a2063616c6c6572206973206e6f7420746865206f776e65726000830152602082019050919050565b60006020820190508181036000830152620002e9816200028c565b9050919050565b600082825260208201905092915050565b60006200030e8262000315565b9050919050565b600073ffffffffffffffffffffffffffffffffffffffff82169050919050565b620003408162000301565b81146200034c57600080fd5b50565b611d8b806200035f6000396000f3fe6080604052600436106100a75760003560e01c80638da5cb5b116100645780638da5cb5b146101d6578063922dd86f14610201578063941b055b1461023e57806395a0f9c714610267578063ae5310f614610290578063f2fde38b146102ac576100a7565b80634579268a146100ac57806349b3709f146100ed57806362b7f94e14610118578063715018a6146101415780638a72ea6a146101585780638bcf79d114610199575b600080fd5b3480156100b857600080fd5b506100d360048036038101906100ce9190611404565b6102d5565b6040516100e495949392919061195f565b60405180910390f35b3480156100f957600080fd5b5061010261034d565b60405161010f91906119b2565b60405180910390f35b34801561012457600080fd5b5061013f600480360381019061013a919061134d565b61056c565b005b34801561014d57600080fd5b506101566105b8565b005b34801561016457600080fd5b5061017f600480360381019061017a9190611404565b6105cc565b6040516101909594939291906118e3565b60405180910390f35b3480156101a557600080fd5b506101c060048036038101906101bb919061139f565b61063f565b6040516101cd9190611891565b60405180910390f35b3480156101e257600080fd5b506101eb6106f4565b6040516101f89190611891565b60405180910390f35b34801561020d57600080fd5b506102286004803603810190610223919061139f565b61071d565b60405161023591906119d4565b60405180910390f35b34801561024a57600080fd5b506102656004803603810190610260919061142d565b610800565b005b34801561027357600080fd5b5061028e60048036038101906102899190611404565b610b75565b005b6102aa60048036038101906102a59190611404565b610db8565b005b3480156102b857600080fd5b506102d360048036038101906102ce919061134d565b61112b565b005b6000806000806000806003600088815260200190815260200160002090508060000160009054906101000a900473ffffffffffffffffffffffffffffffffffffffff168160010154826002015483600301548460040160009054906101000a900460ff16955095509550955095505091939590929450565b60606000600280549050905060008114156103da57600067ffffffffffffffff8111156103a3577f4e487b7100000000000000000000000000000000000000000000000000000000600052604160045260246000fd5b6040519080825280602002602001820160405280156103d15781602001602082028036833780820191505090505b50915050610569565b60008167ffffffffffffffff81111561041c577f4e487b7100000000000000000000000000000000000000000000000000000000600052604160045260246000fd5b60405190808252806020026020018201604052801561044a5781602001602082028036833780820191505090505b50905060005b82811015610562576001151560028281548110610496577f4e487b7100000000000000000000000000000000000000000000000000000000600052603260045260246000fd5b906000526020600020906005020160040160009054906101000a900460ff161515141561054f57600281815481106104f7577f4e487b7100000000000000000000000000000000000000000000000000000000600052603260045260246000fd5b906000526020600020906005020160030154828281518110610542577f4e487b7100000000000000000000000000000000000000000000000000000000600052603260045260246000fd5b6020026020010181815250505b808061055a90611c98565b915050610450565b8193505050505b90565b6105746111af565b80600160006101000a81548173ffffffffffffffffffffffffffffffffffffffff021916908373ffffffffffffffffffffffffffffffffffffffff16021790555050565b6105c06111af565b6105ca600061122d565b565b600281815481106105dc57600080fd5b90600052602060002090600502016000915090508060000160009054906101000a900473ffffffffffffffffffffffffffffffffffffffff16908060010154908060020154908060030154908060040160009054906101000a900460ff16905085565b6000600160009054906101000a900473ffffffffffffffffffffffffffffffffffffffff1673ffffffffffffffffffffffffffffffffffffffff16636352211e836040518263ffffffff1660e01b815260040161069c9190611ba3565b60206040518083038186803b1580156106b457600080fd5b505afa1580156106c8573d6000803e3d6000fd5b505050506040513d601f19601f820116820180604052508101906106ec9190611376565b905092915050565b60008060009054906101000a900473ffffffffffffffffffffffffffffffffffffffff16905090565b60008273ffffffffffffffffffffffffffffffffffffffff16600160009054906101000a900473ffffffffffffffffffffffffffffffffffffffff1673ffffffffffffffffffffffffffffffffffffffff16636352211e846040518263ffffffff1660e01b81526004016107919190611ba3565b60206040518083038186803b1580156107a957600080fd5b505afa1580156107bd573d6000803e3d6000fd5b505050506040513d601f19601f820116820180604052508101906107e19190611376565b73ffffffffffffffffffffffffffffffffffffffff1614905092915050565b61080a338261071d565b610849576040517f08c379a000000000000000000000000000000000000000000000000000000000815260040161084090611a6f565b60405180910390fd5b600015156003600083815260200190815260200160002060040160009054906101000a900460ff161515146108b3576040517f08c379a00000000000000000000000000000000000000000000000000000000081526004016108aa90611b83565b60405180910390fd5b600160009054906101000a900473ffffffffffffffffffffffffffffffffffffffff1673ffffffffffffffffffffffffffffffffffffffff1663e985e9c533306040518363ffffffff1660e01b8152600401610910929190611936565b60206040518083038186803b15801561092857600080fd5b505afa15801561093c573d6000803e3d6000fd5b505050506040513d601f19601f8201168201806040525081019061096091906113db565b61099f576040517f08c379a000000000000000000000000000000000000000000000000000000000815260040161099690611a8f565b60405180910390fd5b60006040518060a001604052803373ffffffffffffffffffffffffffffffffffffffff1681526020018481526020016002805490508152602001838152602001600115158152509050806003600084815260200190815260200160002060008201518160000160006101000a81548173ffffffffffffffffffffffffffffffffffffffff021916908373ffffffffffffffffffffffffffffffffffffffff16021790555060208201518160010155604082015181600201556060820151816003015560808201518160040160006101000a81548160ff021916908315150217905550905050600281908060018154018082558091505060019003906000526020600020906005020160009091909190915060008201518160000160006101000a81548173ffffffffffffffffffffffffffffffffffffffff021916908373ffffffffffffffffffffffffffffffffffffffff16021790555060208201518160010155604082015181600201556060820151816003015560808201518160040160006101000a81548160ff02191690831515021790555050507fd99e4fad9ad6313b1feb588fa8e605e3a9873172f2024330c35dd2b4041a43863383604051610b68929190611aaf565b60405180910390a1505050565b6000600360008381526020019081526020016000206040518060a00160405290816000820160009054906101000a900473ffffffffffffffffffffffffffffffffffffffff1673ffffffffffffffffffffffffffffffffffffffff1673ffffffffffffffffffffffffffffffffffffffff1681526020016001820154815260200160028201548152602001600382015481526020016004820160009054906101000a900460ff16151515158152505090503373ffffffffffffffffffffffffffffffffffffffff16816000015173ffffffffffffffffffffffffffffffffffffffff1614610c98576040517f08c379a0000000000000000000000000000000000000000000000000000000008152600401610c8f90611a0f565b60405180910390fd5b60036000838152602001908152602001600020600080820160006101000a81549073ffffffffffffffffffffffffffffffffffffffff02191690556001820160009055600282016000905560038201600090556004820160006101000a81549060ff0219169055505060006002600360008581526020019081526020016000206002015481548110610d53577f4e487b7100000000000000000000000000000000000000000000000000000000600052603260045260246000fd5b906000526020600020906005020160040160006101000a81548160ff0219169083151502179055507fd99e4fad9ad6313b1feb588fa8e605e3a9873172f2024330c35dd2b4041a43863383604051610dac929190611b47565b60405180910390a15050565b6000600360008381526020019081526020016000206040518060a00160405290816000820160009054906101000a900473ffffffffffffffffffffffffffffffffffffffff1673ffffffffffffffffffffffffffffffffffffffff1673ffffffffffffffffffffffffffffffffffffffff1681526020016001820154815260200160028201548152602001600382015481526020016004820160009054906101000a900460ff161515151581525050905080602001513414610eaf576040517f08c379a0000000000000000000000000000000000000000000000000000000008152600401610ea6906119ef565b60405180910390fd5b600115156003600084815260200190815260200160002060040160009054906101000a900460ff16151514610f19576040517f08c379a0000000000000000000000000000000000000000000000000000000008152600401610f1090611a4f565b60405180910390fd5b60036000838152602001908152602001600020600080820160006101000a81549073ffffffffffffffffffffffffffffffffffffffff02191690556001820160009055600282016000905560038201600090556004820160006101000a81549060ff0219169055505060006002600360008581526020019081526020016000206002015481548110610fd4577f4e487b7100000000000000000000000000000000000000000000000000000000600052603260045260246000fd5b906000526020600020906005020160040160006101000a81548160ff02191690831515021790555060008160200151111561105957806000015173ffffffffffffffffffffffffffffffffffffffff166108fc82602001519081150290604051600060405180830381858888f19350505050158015611057573d6000803e3d6000fd5b505b600160009054906101000a900473ffffffffffffffffffffffffffffffffffffffff1673ffffffffffffffffffffffffffffffffffffffff166323b872dd826000015133856040518463ffffffff1660e01b81526004016110bc939291906118ac565b600060405180830381600087803b1580156110d657600080fd5b505af11580156110ea573d6000803e3d6000fd5b505050507fd99e4fad9ad6313b1feb588fa8e605e3a9873172f2024330c35dd2b4041a4386338360405161111f929190611aeb565b60405180910390a15050565b6111336111af565b600073ffffffffffffffffffffffffffffffffffffffff168173ffffffffffffffffffffffffffffffffffffffff1614156111a3576040517f08c379a000000000000000000000000000000000000000000000000000000000815260040161119a90611a2f565b60405180910390fd5b6111ac8161122d565b50565b6111b76112f1565b73ffffffffffffffffffffffffffffffffffffffff166111d56106f4565b73ffffffffffffffffffffffffffffffffffffffff161461122b576040517f08c379a000000000000000000000000000000000000000000000000000000000815260040161122290611b27565b60405180910390fd5b565b60008060009054906101000a900473ffffffffffffffffffffffffffffffffffffffff169050816000806101000a81548173ffffffffffffffffffffffffffffffffffffffff021916908373ffffffffffffffffffffffffffffffffffffffff1602179055508173ffffffffffffffffffffffffffffffffffffffff168173ffffffffffffffffffffffffffffffffffffffff167f8be0079c531659141344cd1fd0a4f28419497f9722a3daafe3b4186f6b6457e060405160405180910390a35050565b600033905090565b60008135905061130881611d10565b92915050565b60008151905061131d81611d10565b92915050565b60008151905061133281611d27565b92915050565b60008135905061134781611d3e565b92915050565b60006020828403121561135f57600080fd5b600061136d848285016112f9565b91505092915050565b60006020828403121561138857600080fd5b60006113968482850161130e565b91505092915050565b600080604083850312156113b257600080fd5b60006113c0858286016112f9565b92505060206113d185828601611338565b9150509250929050565b6000602082840312156113ed57600080fd5b60006113fb84828501611323565b91505092915050565b60006020828403121561141657600080fd5b600061142484828501611338565b91505092915050565b6000806040838503121561144057600080fd5b600061144e85828601611338565b925050602061145f85828601611338565b9150509250929050565b60006114758383611873565b60208301905092915050565b61148a81611c62565b82525050565b61149981611c1a565b82525050565b6114a881611c08565b82525050565b60006114b982611bce565b6114c38185611be6565b93506114ce83611bbe565b8060005b838110156114ff5781516114e68882611469565b97506114f183611bd9565b9250506001810190506114d2565b5085935050505092915050565b61151581611c2c565b82525050565b6000611528601683611bf7565b91507f54686520707269636520697320696e636f7272656374000000000000000000006000830152602082019050919050565b6000611568602283611bf7565b91507f596f7520617265206e6f74207468652073656c6c6572206f662074686973206e60008301527f66740000000000000000000000000000000000000000000000000000000000006020830152604082019050919050565b60006115ce602683611bf7565b91507f4f776e61626c653a206e6577206f776e657220697320746865207a65726f206160008301527f64647265737300000000000000000000000000000000000000000000000000006020830152604082019050919050565b6000611634601783611bf7565b91507f4e6f20616374697665206f666665722070726573656e740000000000000000006000830152602082019050919050565b6000611674601583611bf7565b91507f596f7520617265206e6f7420746865206f776e657200000000000000000000006000830152602082019050919050565b60006116b4602783611bf7565b91507f436f6e7472616374206e6565647320617070726f76616c20746f20637265617460008301527f65206f66666572000000000000000000000000000000000000000000000000006020830152604082019050919050565b600061171a600c83611bf7565b91507f437265617465206f6666657200000000000000000000000000000000000000006000830152602082019050919050565b600061175a600383611bf7565b91507f42757900000000000000000000000000000000000000000000000000000000006000830152602082019050919050565b600061179a602083611bf7565b91507f4f776e61626c653a2063616c6c6572206973206e6f7420746865206f776e65726000830152602082019050919050565b60006117da600c83611bf7565b91507f52656d6f7665206f6666657200000000000000000000000000000000000000006000830152602082019050919050565b600061181a602483611bf7565b91507f596f752063616e2774206f66666572207468652073616d6520746f6b656e207460008301527f77696365000000000000000000000000000000000000000000000000000000006020830152604082019050919050565b61187c81611c58565b82525050565b61188b81611c58565b82525050565b60006020820190506118a6600083018461149f565b92915050565b60006060820190506118c16000830186611481565b6118ce602083018561149f565b6118db6040830184611882565b949350505050565b600060a0820190506118f86000830188611490565b6119056020830187611882565b6119126040830186611882565b61191f6060830185611882565b61192c608083018461150c565b9695505050505050565b600060408201905061194b600083018561149f565b611958602083018461149f565b9392505050565b600060a082019050611974600083018861149f565b6119816020830187611882565b61198e6040830186611882565b61199b6060830185611882565b6119a8608083018461150c565b9695505050505050565b600060208201905081810360008301526119cc81846114ae565b905092915050565b60006020820190506119e9600083018461150c565b92915050565b60006020820190508181036000830152611a088161151b565b9050919050565b60006020820190508181036000830152611a288161155b565b9050919050565b60006020820190508181036000830152611a48816115c1565b9050919050565b60006020820190508181036000830152611a6881611627565b9050919050565b60006020820190508181036000830152611a8881611667565b9050919050565b60006020820190508181036000830152611aa8816116a7565b9050919050565b60006060820190508181036000830152611ac88161170d565b9050611ad7602083018561149f565b611ae46040830184611882565b9392505050565b60006060820190508181036000830152611b048161174d565b9050611b13602083018561149f565b611b206040830184611882565b9392505050565b60006020820190508181036000830152611b408161178d565b9050919050565b60006060820190508181036000830152611b60816117cd565b9050611b6f602083018561149f565b611b7c6040830184611882565b9392505050565b60006020820190508181036000830152611b9c8161180d565b9050919050565b6000602082019050611bb86000830184611882565b92915050565b6000819050602082019050919050565b600081519050919050565b6000602082019050919050565b600082825260208201905092915050565b600082825260208201905092915050565b6000611c1382611c38565b9050919050565b6000611c2582611c38565b9050919050565b60008115159050919050565b600073ffffffffffffffffffffffffffffffffffffffff82169050919050565b6000819050919050565b6000611c6d82611c74565b9050919050565b6000611c7f82611c86565b9050919050565b6000611c9182611c38565b9050919050565b6000611ca382611c58565b91507fffffffffffffffffffffffffffffffffffffffffffffffffffffffffffffffff821415611cd657611cd5611ce1565b5b600182019050919050565b7f4e487b7100000000000000000000000000000000000000000000000000000000600052601160045260246000fd5b611d1981611c08565b8114611d2457600080fd5b50565b611d3081611c2c565b8114611d3b57600080fd5b50565b611d4781611c58565b8114611d5257600080fd5b5056fea2646970667358221220d8c7fbfb042d20929c0d3f2ca75e14a50bc8669fc83bad23cd8e6c897a5dcf9364736f6c63430008000033",
  "immutableReferences": {},
  "source": "// SPDX-License-Identifier: MIT\npragma solidity ^0.8.0;\n\nimport \"./KittyContract.sol\";\nimport \"@openzeppelin/contracts/access/Ownable.sol\";\nimport \"./IKittyMarketplace.sol\";\n\ncontract KittyMarketPlace is Ownable {\n    KittyContract private _kittyContract;\n\n    struct Offer {\n        address payable seller;\n        uint256 price;\n        uint256 index;\n        uint256 tokenId;\n        bool active;\n    }\n    Offer[] public offers;\n\n    mapping(uint256 => Offer) tokenIdToOffer;\n\n    event MarketTransaction(string TxType, address owner, uint256 tokenId);\n\n    constructor(address _kittyContractAddress) {\n        setKittyContract(_kittyContractAddress);\n    }\n\n    function setKittyContract(address _kittyContractAddress) public onlyOwner {\n        _kittyContract = KittyContract(_kittyContractAddress);\n    }\n\n    function getOffer(uint256 _tokenId)\n        external\n        view\n        returns (\n            address seller,\n            uint256 price,\n            uint256 index,\n            uint256 tokenId,\n            bool active\n        )\n    {\n        Offer storage offer = tokenIdToOffer[_tokenId];\n        return (\n            offer.seller,\n            offer.price,\n            offer.index,\n            offer.tokenId,\n            offer.active\n        );\n    }\n\n    function getAllTokenOnSale()\n        external\n        view\n        returns (uint256[] memory listOfOffers)\n    {\n        uint256 totalOffers = offers.length;\n\n        if (totalOffers == 0) {\n            return new uint256[](0);\n        } else {\n            uint256[] memory result = new uint256[](totalOffers);\n\n            uint256 offerId;\n\n            for (offerId = 0; offerId < totalOffers; offerId++) {\n                if (offers[offerId].active == true) {\n                    result[offerId] = offers[offerId].tokenId;\n                }\n            }\n            return result;\n        }\n    }\n\n    function _ownsKitty(address _address, uint256 _tokenId)\n        public\n        view\n        returns (bool)\n    {\n        return (_kittyContract.ownerOf(_tokenId) == _address);\n    }\n\n    function _ownerOf(address _address, uint256 _tokenId)\n        external\n        view\n        returns (address)\n    {\n        return (_kittyContract.ownerOf(_tokenId));\n    }\n\n    function setOffer(uint256 _price, uint256 _tokenId) public {\n        require(_ownsKitty(msg.sender, _tokenId), \"You are not the owner\");\n        require(\n            tokenIdToOffer[_tokenId].active == false,\n            \"You can't offer the same token twice\"\n        );\n        require(\n            _kittyContract.isApprovedForAll(msg.sender, address(this)),\n            \"Contract needs approval to create offer\"\n        );\n        Offer memory _offer = Offer({\n            seller: payable(msg.sender),\n            price: _price,\n            active: true,\n            tokenId: _tokenId,\n            index: offers.length\n        });\n        tokenIdToOffer[_tokenId] = _offer;\n        offers.push(_offer);\n\n        emit MarketTransaction(\"Create offer\", msg.sender, _tokenId);\n    }\n\n    function removeOffer(uint256 _tokenId) public {\n        Offer memory offer = tokenIdToOffer[_tokenId];\n        require(\n            offer.seller == msg.sender,\n            \"You are not the seller of this nft\"\n        );\n        delete tokenIdToOffer[_tokenId];\n        offers[tokenIdToOffer[_tokenId].index].active = false;\n\n        emit MarketTransaction(\"Remove offer\", msg.sender, _tokenId);\n    }\n\n    function buyKitty(uint256 _tokenId) public payable {\n        Offer memory offer = tokenIdToOffer[_tokenId];\n        require(msg.value == offer.price, \"The price is incorrect\");\n        require(\n            tokenIdToOffer[_tokenId].active == true,\n            \"No active offer present\"\n        );\n\n        //Important: Delete the kitty from the mapping before paying out to prevent reentantrancy attacks\n        delete tokenIdToOffer[_tokenId];\n        offers[tokenIdToOffer[_tokenId].index].active = false;\n\n        //Transfer the funds to the seller\n        //TO DO: Make this logic pull instead of push\n        if (offer.price > 0) {\n            offer.seller.transfer(offer.price);\n        }\n\n        //Transfer ownership of the kitty\n        _kittyContract.transferFrom(offer.seller, msg.sender, _tokenId);\n\n        emit MarketTransaction(\"Buy\", msg.sender, _tokenId);\n    }\n}\n",
  "sourcePath": "/Users/josephdeangeloi/Documents/IVAN ON TECH ACADEMY/Build An NFT Marketplace/KittiesProject/contracts/KittyMarketPlace.sol",
  "compiler": {
    "name": "solc",
    "version": "0.8.0+commit.c7dfd78e.Emscripten.clang"
  },
  "schemaVersion": "3.4.6",
  "updatedAt": "2022-08-08T17:42:53.024Z",
  "networkType": "ethereum",
  "devdoc": {
    "kind": "dev",
    "methods": {
      "owner()": {
        "details": "Returns the address of the current owner."
      },
      "renounceOwnership()": {
        "details": "Leaves the contract without owner. It will not be possible to call `onlyOwner` functions anymore. Can only be called by the current owner. NOTE: Renouncing ownership will leave the contract without an owner, thereby removing any functionality that is only available to the owner."
      },
      "transferOwnership(address)": {
        "details": "Transfers ownership of the contract to a new account (`newOwner`). Can only be called by the current owner."
      }
    },
    "version": 1
  },
  "userdoc": {
    "kind": "user",
    "methods": {},
    "version": 1
  }
}