{
  "contractName": "KittyContract",
  "abi": [
    {
      "anonymous": false,
      "inputs": [
        {
          "indexed": true,
          "internalType": "address",
          "name": "owner",
          "type": "address"
        },
        {
          "indexed": true,
          "internalType": "address",
          "name": "approved",
          "type": "address"
        },
        {
          "indexed": true,
          "internalType": "uint256",
          "name": "tokenId",
          "type": "uint256"
        }
      ],
      "name": "Approval",
      "type": "event"
    },
    {
      "anonymous": false,
      "inputs": [
        {
          "indexed": true,
          "internalType": "address",
          "name": "owner",
          "type": "address"
        },
        {
          "indexed": true,
          "internalType": "address",
          "name": "operator",
          "type": "address"
        },
        {
          "indexed": false,
          "internalType": "bool",
          "name": "approved",
          "type": "bool"
        }
      ],
      "name": "ApprovalForAll",
      "type": "event"
    },
    {
      "anonymous": false,
      "inputs": [
        {
          "indexed": false,
          "internalType": "address",
          "name": "owner",
          "type": "address"
        },
        {
          "indexed": false,
          "internalType": "uint256",
          "name": "kittenId",
          "type": "uint256"
        },
        {
          "indexed": false,
          "internalType": "uint256",
          "name": "mumId",
          "type": "uint256"
        },
        {
          "indexed": false,
          "internalType": "uint256",
          "name": "dadId",
          "type": "uint256"
        },
        {
          "indexed": false,
          "internalType": "uint256",
          "name": "genes",
          "type": "uint256"
        }
      ],
      "name": "Birth",
      "type": "event"
    },
    {
      "anonymous": false,
      "inputs": [
        {
          "indexed": true,
          "internalType": "address",
          "name": "previousOwner",
          "type": "address"
        },
        {
          "indexed": true,
          "internalType": "address",
          "name": "newOwner",
          "type": "address"
        }
      ],
      "name": "OwnershipTransferred",
      "type": "event"
    },
    {
      "anonymous": false,
      "inputs": [
        {
          "indexed": true,
          "internalType": "address",
          "name": "from",
          "type": "address"
        },
        {
          "indexed": true,
          "internalType": "address",
          "name": "to",
          "type": "address"
        },
        {
          "indexed": true,
          "internalType": "uint256",
          "name": "tokenId",
          "type": "uint256"
        }
      ],
      "name": "Transfer",
      "type": "event"
    },
    {
      "inputs": [],
      "name": "CREATION_LIMIT_GEN0",
      "outputs": [
        {
          "internalType": "uint256",
          "name": "",
          "type": "uint256"
        }
      ],
      "stateMutability": "view",
      "type": "function",
      "constant": true
    },
    {
      "inputs": [],
      "name": "TokenName",
      "outputs": [
        {
          "internalType": "string",
          "name": "",
          "type": "string"
        }
      ],
      "stateMutability": "view",
      "type": "function",
      "constant": true
    },
    {
      "inputs": [],
      "name": "TokenSymbol",
      "outputs": [
        {
          "internalType": "string",
          "name": "",
          "type": "string"
        }
      ],
      "stateMutability": "view",
      "type": "function",
      "constant": true
    },
    {
      "inputs": [],
      "name": "gen0Counter",
      "outputs": [
        {
          "internalType": "uint256",
          "name": "",
          "type": "uint256"
        }
      ],
      "stateMutability": "view",
      "type": "function",
      "constant": true
    },
    {
      "inputs": [
        {
          "internalType": "uint256",
          "name": "",
          "type": "uint256"
        }
      ],
      "name": "kittyIndexToOwner",
      "outputs": [
        {
          "internalType": "address",
          "name": "",
          "type": "address"
        }
      ],
      "stateMutability": "view",
      "type": "function",
      "constant": true
    },
    {
      "inputs": [
        {
          "internalType": "address",
          "name": "",
          "type": "address"
        },
        {
          "internalType": "address",
          "name": "",
          "type": "address"
        }
      ],
      "name": "operatorApprovals",
      "outputs": [
        {
          "internalType": "bool",
          "name": "",
          "type": "bool"
        }
      ],
      "stateMutability": "view",
      "type": "function",
      "constant": true
    },
    {
      "inputs": [],
      "name": "owner",
      "outputs": [
        {
          "internalType": "address",
          "name": "",
          "type": "address"
        }
      ],
      "stateMutability": "view",
      "type": "function",
      "constant": true
    },
    {
      "inputs": [
        {
          "internalType": "address",
          "name": "",
          "type": "address"
        }
      ],
      "name": "ownerTokenCount",
      "outputs": [
        {
          "internalType": "uint256",
          "name": "",
          "type": "uint256"
        }
      ],
      "stateMutability": "view",
      "type": "function",
      "constant": true
    },
    {
      "inputs": [],
      "name": "renounceOwnership",
      "outputs": [],
      "stateMutability": "nonpayable",
      "type": "function"
    },
    {
      "inputs": [
        {
          "internalType": "uint256",
          "name": "",
          "type": "uint256"
        }
      ],
      "name": "tokenApprovals",
      "outputs": [
        {
          "internalType": "address",
          "name": "",
          "type": "address"
        }
      ],
      "stateMutability": "view",
      "type": "function",
      "constant": true
    },
    {
      "inputs": [
        {
          "internalType": "address",
          "name": "newOwner",
          "type": "address"
        }
      ],
      "name": "transferOwnership",
      "outputs": [],
      "stateMutability": "nonpayable",
      "type": "function"
    },
    {
      "inputs": [
        {
          "internalType": "bytes4",
          "name": "_interfaceId",
          "type": "bytes4"
        }
      ],
      "name": "supportsInterface",
      "outputs": [
        {
          "internalType": "bool",
          "name": "",
          "type": "bool"
        }
      ],
      "stateMutability": "pure",
      "type": "function",
      "constant": true
    },
    {
      "inputs": [
        {
          "internalType": "uint256",
          "name": "_genes",
          "type": "uint256"
        }
      ],
      "name": "createKittyGen0",
      "outputs": [
        {
          "internalType": "uint256",
          "name": "",
          "type": "uint256"
        }
      ],
      "stateMutability": "nonpayable",
      "type": "function"
    },
    {
      "inputs": [
        {
          "internalType": "uint256",
          "name": "_dadId",
          "type": "uint256"
        },
        {
          "internalType": "uint256",
          "name": "_mumId",
          "type": "uint256"
        }
      ],
      "name": "breed",
      "outputs": [
        {
          "internalType": "uint256",
          "name": "",
          "type": "uint256"
        }
      ],
      "stateMutability": "nonpayable",
      "type": "function"
    },
    {
      "inputs": [
        {
          "internalType": "uint256",
          "name": "_dadDna",
          "type": "uint256"
        },
        {
          "internalType": "uint256",
          "name": "_mumDna",
          "type": "uint256"
        }
      ],
      "name": "_mixDna",
      "outputs": [
        {
          "internalType": "uint256",
          "name": "",
          "type": "uint256"
        }
      ],
      "stateMutability": "pure",
      "type": "function",
      "constant": true
    },
    {
      "inputs": [
        {
          "internalType": "uint256",
          "name": "_id",
          "type": "uint256"
        }
      ],
      "name": "getKitty",
      "outputs": [
        {
          "internalType": "uint256",
          "name": "genes",
          "type": "uint256"
        },
        {
          "internalType": "uint256",
          "name": "birthTime",
          "type": "uint256"
        },
        {
          "internalType": "uint256",
          "name": "mumId",
          "type": "uint256"
        },
        {
          "internalType": "uint256",
          "name": "dadId",
          "type": "uint256"
        },
        {
          "internalType": "uint256",
          "name": "generation",
          "type": "uint256"
        }
      ],
      "stateMutability": "view",
      "type": "function",
      "constant": true
    },
    {
      "inputs": [
        {
          "internalType": "address",
          "name": "ownerAddress",
          "type": "address"
        }
      ],
      "name": "balanceOf",
      "outputs": [
        {
          "internalType": "uint256",
          "name": "balance",
          "type": "uint256"
        }
      ],
      "stateMutability": "view",
      "type": "function",
      "constant": true
    },
    {
      "inputs": [],
      "name": "totalSupply",
      "outputs": [
        {
          "internalType": "uint256",
          "name": "",
          "type": "uint256"
        }
      ],
      "stateMutability": "view",
      "type": "function",
      "constant": true
    },
    {
      "inputs": [],
      "name": "name",
      "outputs": [
        {
          "internalType": "string",
          "name": "",
          "type": "string"
        }
      ],
      "stateMutability": "view",
      "type": "function",
      "constant": true
    },
    {
      "inputs": [],
      "name": "symbol",
      "outputs": [
        {
          "internalType": "string",
          "name": "",
          "type": "string"
        }
      ],
      "stateMutability": "view",
      "type": "function",
      "constant": true
    },
    {
      "inputs": [
        {
          "internalType": "uint256",
          "name": "_tokenId",
          "type": "uint256"
        }
      ],
      "name": "ownerOf",
      "outputs": [
        {
          "internalType": "address",
          "name": "",
          "type": "address"
        }
      ],
      "stateMutability": "view",
      "type": "function",
      "constant": true
    },
    {
      "inputs": [
        {
          "internalType": "address",
          "name": "_to",
          "type": "address"
        },
        {
          "internalType": "uint256",
          "name": "_tokenId",
          "type": "uint256"
        }
      ],
      "name": "transfer",
      "outputs": [],
      "stateMutability": "nonpayable",
      "type": "function"
    },
    {
      "inputs": [
        {
          "internalType": "address",
          "name": "_to",
          "type": "address"
        },
        {
          "internalType": "uint256",
          "name": "_tokenId",
          "type": "uint256"
        }
      ],
      "name": "approve",
      "outputs": [],
      "stateMutability": "nonpayable",
      "type": "function"
    },
    {
      "inputs": [
        {
          "internalType": "address",
          "name": "_claimant",
          "type": "address"
        },
        {
          "internalType": "uint256",
          "name": "_tokenId",
          "type": "uint256"
        }
      ],
      "name": "owns",
      "outputs": [
        {
          "internalType": "bool",
          "name": "",
          "type": "bool"
        }
      ],
      "stateMutability": "view",
      "type": "function",
      "constant": true
    },
    {
      "inputs": [
        {
          "internalType": "address",
          "name": "_operator",
          "type": "address"
        },
        {
          "internalType": "bool",
          "name": "_approved",
          "type": "bool"
        }
      ],
      "name": "setApprovalForAll",
      "outputs": [],
      "stateMutability": "nonpayable",
      "type": "function"
    },
    {
      "inputs": [
        {
          "internalType": "address",
          "name": "_ownerAddress",
          "type": "address"
        },
        {
          "internalType": "address",
          "name": "_operator",
          "type": "address"
        }
      ],
      "name": "isApprovedForAll",
      "outputs": [
        {
          "internalType": "bool",
          "name": "",
          "type": "bool"
        }
      ],
      "stateMutability": "view",
      "type": "function",
      "constant": true
    },
    {
      "inputs": [
        {
          "internalType": "uint256",
          "name": "_tokenId",
          "type": "uint256"
        }
      ],
      "name": "getApproved",
      "outputs": [
        {
          "internalType": "address",
          "name": "",
          "type": "address"
        }
      ],
      "stateMutability": "view",
      "type": "function",
      "constant": true
    },
    {
      "inputs": [
        {
          "internalType": "address",
          "name": "_from",
          "type": "address"
        },
        {
          "internalType": "address",
          "name": "_to",
          "type": "address"
        },
        {
          "internalType": "uint256",
          "name": "_tokenId",
          "type": "uint256"
        }
      ],
      "name": "transferFrom",
      "outputs": [],
      "stateMutability": "nonpayable",
      "type": "function"
    },
    {
      "inputs": [
        {
          "internalType": "address",
          "name": "_from",
          "type": "address"
        },
        {
          "internalType": "address",
          "name": "_to",
          "type": "address"
        },
        {
          "internalType": "uint256",
          "name": "_tokenId",
          "type": "uint256"
        }
      ],
      "name": "safeTransferFrom",
      "outputs": [],
      "stateMutability": "nonpayable",
      "type": "function"
    },
    {
      "inputs": [
        {
          "internalType": "address",
          "name": "_from",
          "type": "address"
        },
        {
          "internalType": "address",
          "name": "_to",
          "type": "address"
        },
        {
          "internalType": "uint256",
          "name": "_tokenId",
          "type": "uint256"
        },
        {
          "internalType": "bytes",
          "name": "_data",
          "type": "bytes"
        }
      ],
      "name": "safeTransferFrom",
      "outputs": [],
      "stateMutability": "nonpayable",
      "type": "function"
    }
  ],
  "bytecode": "0x60806040526040518060400160405280600881526020017f486f65546f6b656e0000000000000000000000000000000000000000000000008152506001908051906020019062000051929190620001a0565b506040518060400160405280600381526020017f484f450000000000000000000000000000000000000000000000000000000000815250600290805190602001906200009f929190620001a0565b50348015620000ad57600080fd5b50620000ce620000c2620000d460201b60201c565b620000dc60201b60201c565b620002b5565b600033905090565b60008060009054906101000a900473ffffffffffffffffffffffffffffffffffffffff169050816000806101000a81548173ffffffffffffffffffffffffffffffffffffffff021916908373ffffffffffffffffffffffffffffffffffffffff1602179055508173ffffffffffffffffffffffffffffffffffffffff168173ffffffffffffffffffffffffffffffffffffffff167f8be0079c531659141344cd1fd0a4f28419497f9722a3daafe3b4186f6b6457e060405160405180910390a35050565b828054620001ae9062000250565b90600052602060002090601f016020900481019282620001d257600085556200021e565b82601f10620001ed57805160ff19168380011785556200021e565b828001600101855582156200021e579182015b828111156200021d57825182559160200191906001019062000200565b5b5090506200022d919062000231565b5090565b5b808211156200024c57600081600090555060010162000232565b5090565b600060028204905060018216806200026957607f821691505b6020821081141562000280576200027f62000286565b5b50919050565b7f4e487b7100000000000000000000000000000000000000000000000000000000600052602260045260246000fd5b612f1f80620002c56000396000f3fe608060405234801561001057600080fd5b50600436106101d95760003560e01c806395d89b4111610104578063b88d4fde116100a2578063e985e9c511610071578063e985e9c5146105a2578063e98b7f4d146105d2578063ef5e94aa14610606578063f2fde38b14610624576101d9565b8063b88d4fde146104f6578063c2fb09a814610512578063d5a776ca14610542578063d9ecad7b14610572576101d9565b8063a9059cbb116100de578063a9059cbb1461046e578063acdeb5b91461048a578063b4834330146104ba578063b6d7855a146104d8576101d9565b806395d89b4114610404578063a22cb46514610422578063a45f4bfc1461043e576101d9565b806323b872dd1161017c578063715018a61161014b578063715018a61461037c578063818d4b5d146103865780638da5cb5b146103b6578063959bb970146103d4576101d9565b806323b872dd146102e457806342842e0e146103005780636352211e1461031c57806370a082311461034c576101d9565b8063081812fc116101b8578063081812fc1461024a578063095ea7b31461027a5780630d95e0541461029657806318160ddd146102c6576101d9565b8062c8fbd4146101de57806301ffc9a7146101fc57806306fdde031461022c575b600080fd5b6101e6610640565b6040516101f391906128f5565b60405180910390f35b610216600480360381019061021191906122f2565b6106ce565b60405161022391906128da565b60405180910390f35b61023461076e565b60405161024191906128f5565b60405180910390f35b610264600480360381019061025f9190612344565b610800565b6040516102719190612820565b60405180910390f35b610294600480360381019061028f91906122b6565b61084e565b005b6102b060048036038101906102ab919061216f565b610962565b6040516102bd91906128da565b60405180910390f35b6102ce610991565b6040516102db9190612ab7565b60405180910390f35b6102fe60048036038101906102f991906121ab565b61099e565b005b61031a600480360381019061031591906121ab565b610a8a565b005b61033660048036038101906103319190612344565b610b62565b6040516103439190612820565b60405180910390f35b61036660048036038101906103619190612146565b610c14565b6040516103739190612ab7565b60405180910390f35b610384610c5d565b005b6103a0600480360381019061039b91906122b6565b610c71565b6040516103ad91906128da565b60405180910390f35b6103be610cdd565b6040516103cb9190612820565b60405180910390f35b6103ee60048036038101906103e9919061236d565b610d06565b6040516103fb9190612ab7565b60405180910390f35b61040c610d60565b60405161041991906128f5565b60405180910390f35b61043c6004803603810190610437919061227a565b610df2565b005b61045860048036038101906104539190612344565b610e3a565b6040516104659190612820565b60405180910390f35b610488600480360381019061048391906122b6565b610e6d565b005b6104a4600480360381019061049f9190612344565b611013565b6040516104b19190612820565b60405180910390f35b6104c2611046565b6040516104cf9190612ab7565b60405180910390f35b6104e061104b565b6040516104ed91906128f5565b60405180910390f35b610510600480360381019061050b91906121fa565b6110d9565b005b61052c60048036038101906105279190612146565b61121d565b6040516105399190612ab7565b60405180910390f35b61055c60048036038101906105579190612344565b611235565b6040516105699190612ab7565b60405180910390f35b61058c6004803603810190610587919061236d565b61127c565b6040516105999190612ab7565b60405180910390f35b6105bc60048036038101906105b7919061216f565b61149a565b6040516105c991906128da565b60405180910390f35b6105ec60048036038101906105e79190612344565b61152e565b6040516105fd959493929190612ad2565b60405180910390f35b61060e61160a565b60405161061b9190612ab7565b60405180910390f35b61063e60048036038101906106399190612146565b611610565b005b6002805461064d90612d43565b80601f016020809104026020016040519081016040528092919081815260200182805461067990612d43565b80156106c65780601f1061069b576101008083540402835291602001916106c6565b820191906000526020600020905b8154815290600101906020018083116106a957829003601f168201915b505050505081565b60006380ac58cd60e01b7bffffffffffffffffffffffffffffffffffffffffffffffffffffffff1916827bffffffffffffffffffffffffffffffffffffffffffffffffffffffff1916148061076757506301ffc9a760e01b7bffffffffffffffffffffffffffffffffffffffffffffffffffffffff1916827bffffffffffffffffffffffffffffffffffffffffffffffffffffffff1916145b9050919050565b60606001805461077d90612d43565b80601f01602080910402602001604051908101604052809291908181526020018280546107a990612d43565b80156107f65780601f106107cb576101008083540402835291602001916107f6565b820191906000526020600020905b8154815290600101906020018083116107d957829003601f168201915b5050505050905090565b6000600480549050821061081357600080fd5b6005600083815260200190815260200160002060009054906101000a900473ffffffffffffffffffffffffffffffffffffffff169050919050565b60006006600083815260200190815260200160002060009054906101000a900473ffffffffffffffffffffffffffffffffffffffff169050600073ffffffffffffffffffffffffffffffffffffffff168173ffffffffffffffffffffffffffffffffffffffff1614156108c057600080fd5b6108ca3383610c71565b806108db57506108da813361149a565b5b6108e457600080fd5b3373ffffffffffffffffffffffffffffffffffffffff168373ffffffffffffffffffffffffffffffffffffffff161415610953576040517f08c379a000000000000000000000000000000000000000000000000000000000815260040161094a90612a17565b60405180910390fd5b61095d8383611694565b505050565b60086020528160005260406000206020528060005260406000206000915091509054906101000a900460ff1681565b6000600480549050905090565b600073ffffffffffffffffffffffffffffffffffffffff168273ffffffffffffffffffffffffffffffffffffffff161415610a0e576040517f08c379a0000000000000000000000000000000000000000000000000000000008152600401610a05906129d7565b60405180910390fd5b610a188382611745565b80610a295750610a28833361149a565b5b610a3257600080fd5b610a3b816118f9565b610a7a576040517f08c379a0000000000000000000000000000000000000000000000000000000008152600401610a7190612a37565b60405180910390fd5b610a85838383611965565b505050565b610a948382610c71565b610a9d57600080fd5b600073ffffffffffffffffffffffffffffffffffffffff168273ffffffffffffffffffffffffffffffffffffffff161415610ad757600080fd5b8273ffffffffffffffffffffffffffffffffffffffff163373ffffffffffffffffffffffffffffffffffffffff161480610b175750610b168382611745565b5b80610b285750610b27833361149a565b5b610b3157600080fd5b6004805490508110610b4257600080fd5b610b5d83838360405180602001604052806000815250611af6565b505050565b6000806006600084815260200190815260200160002060009054906101000a900473ffffffffffffffffffffffffffffffffffffffff169050600073ffffffffffffffffffffffffffffffffffffffff168173ffffffffffffffffffffffffffffffffffffffff161415610c0b576040517f08c379a0000000000000000000000000000000000000000000000000000000008152600401610c0290612a97565b60405180910390fd5b80915050919050565b6000600760008373ffffffffffffffffffffffffffffffffffffffff1673ffffffffffffffffffffffffffffffffffffffff168152602001908152602001600020549050919050565b610c65611b1c565b610c6f6000611b9a565b565b60008273ffffffffffffffffffffffffffffffffffffffff166006600084815260200190815260200160002060009054906101000a900473ffffffffffffffffffffffffffffffffffffffff1673ffffffffffffffffffffffffffffffffffffffff1614905092915050565b60008060009054906101000a900473ffffffffffffffffffffffffffffffffffffffff16905090565b6000806305f5e10084610d199190612bb3565b905060006305f5e10084610d2d9190612dbe565b905060006305f5e10083610d419190612be4565b905060008282610d519190612b5d565b90508094505050505092915050565b606060028054610d6f90612d43565b80601f0160208091040260200160405190810160405280929190818152602001828054610d9b90612d43565b8015610de85780601f10610dbd57610100808354040283529160200191610de8565b820191906000526020600020905b815481529060010190602001808311610dcb57829003601f168201915b5050505050905090565b3373ffffffffffffffffffffffffffffffffffffffff168273ffffffffffffffffffffffffffffffffffffffff161415610e2b57600080fd5b610e36338383611c5e565b5050565b60066020528060005260406000206000915054906101000a900473ffffffffffffffffffffffffffffffffffffffff1681565b600073ffffffffffffffffffffffffffffffffffffffff168273ffffffffffffffffffffffffffffffffffffffff161415610edd576040517f08c379a0000000000000000000000000000000000000000000000000000000008152600401610ed490612997565b60405180910390fd5b3073ffffffffffffffffffffffffffffffffffffffff168273ffffffffffffffffffffffffffffffffffffffff161415610f4c576040517f08c379a0000000000000000000000000000000000000000000000000000000008152600401610f4390612a57565b60405180910390fd5b610f563382610c71565b610f95576040517f08c379a0000000000000000000000000000000000000000000000000000000008152600401610f8c90612a77565b60405180910390fd5b3373ffffffffffffffffffffffffffffffffffffffff168273ffffffffffffffffffffffffffffffffffffffff161415611004576040517f08c379a0000000000000000000000000000000000000000000000000000000008152600401610ffb90612937565b60405180910390fd5b61100f338383611965565b5050565b60056020528060005260406000206000915054906101000a900473ffffffffffffffffffffffffffffffffffffffff1681565b600a81565b6001805461105890612d43565b80601f016020809104026020016040519081016040528092919081815260200182805461108490612d43565b80156110d15780601f106110a6576101008083540402835291602001916110d1565b820191906000526020600020905b8154815290600101906020018083116110b457829003601f168201915b505050505081565b600073ffffffffffffffffffffffffffffffffffffffff168473ffffffffffffffffffffffffffffffffffffffff16141561111357600080fd5b61111c836118f9565b61115b576040517f08c379a000000000000000000000000000000000000000000000000000000000815260040161115290612957565b60405180910390fd5b600480549050831061116c57600080fd5b8473ffffffffffffffffffffffffffffffffffffffff163373ffffffffffffffffffffffffffffffffffffffff1614806111ac57506111ab8584611745565b5b806111bd57506111bc853361149a565b5b6111c657600080fd5b61121685858585858080601f016020809104026020016040519081016040528093929190818152602001838380828437600081840152601f19601f82011690508083019250505050505050611af6565b5050505050565b60076020528060005260406000206000915090505481565b600061123f611b1c565b600a6003541061124e57600080fd5b6003600081548092919061126190612d75565b919050555061127582600080600033611dcb565b9050919050565b60006112883384610c71565b801561129a57506112993383610c71565b5b6112d9576040517f08c379a00000000000000000000000000000000000000000000000000000000081526004016112d0906129f7565b60405180910390fd5b600060048481548110611315577f4e487b7100000000000000000000000000000000000000000000000000000000600052603260045260246000fd5b906000526020600020906002020160010160109054906101000a900461ffff1661ffff169050600060048481548110611377577f4e487b7100000000000000000000000000000000000000000000000000000000600052603260045260246000fd5b906000526020600020906002020160010160109054906101000a900461ffff1661ffff1690506000818311156113bb5782806113b290612d75565b935090506113cb565b81806113c690612d75565b925090505b600060048781548110611407577f4e487b7100000000000000000000000000000000000000000000000000000000600052603260045260246000fd5b9060005260206000209060020201600001549050600060048781548110611457577f4e487b7100000000000000000000000000000000000000000000000000000000600052603260045260246000fd5b906000526020600020906002020160000154905060006114778383610d06565b90506000611488828a8c8833611dcb565b90508097505050505050505092915050565b6000600860008473ffffffffffffffffffffffffffffffffffffffff1673ffffffffffffffffffffffffffffffffffffffff16815260200190815260200160002060008373ffffffffffffffffffffffffffffffffffffffff1673ffffffffffffffffffffffffffffffffffffffff16815260200190815260200160002060009054906101000a900460ff16905092915050565b60008060008060008060048781548110611571577f4e487b7100000000000000000000000000000000000000000000000000000000600052603260045260246000fd5b90600052602060002090600202019050806000015495508060010160009054906101000a900467ffffffffffffffff1667ffffffffffffffff1694508060010160089054906101000a900463ffffffff1663ffffffff16935080600101600c9054906101000a900463ffffffff1663ffffffff1692508060010160109054906101000a900461ffff1661ffff1691505091939590929450565b60035481565b611618611b1c565b600073ffffffffffffffffffffffffffffffffffffffff168173ffffffffffffffffffffffffffffffffffffffff161415611688576040517f08c379a000000000000000000000000000000000000000000000000000000000815260040161167f90612917565b60405180910390fd5b61169181611b9a565b50565b816005600083815260200190815260200160002060006101000a81548173ffffffffffffffffffffffffffffffffffffffff021916908373ffffffffffffffffffffffffffffffffffffffff160217905550808273ffffffffffffffffffffffffffffffffffffffff163373ffffffffffffffffffffffffffffffffffffffff167f8c5be1e5ebec7d5bd14f71427d1e84f3dd0314c0f7b2291e5b200ac8c7c3b92560405160405180910390a45050565b6000611750826118f9565b61178f576040517f08c379a000000000000000000000000000000000000000000000000000000000815260040161178690612a37565b60405180910390fd5b60006006600084815260200190815260200160002060009054906101000a900473ffffffffffffffffffffffffffffffffffffffff1690508073ffffffffffffffffffffffffffffffffffffffff168473ffffffffffffffffffffffffffffffffffffffff16148061185f57508373ffffffffffffffffffffffffffffffffffffffff166005600085815260200190815260200160002060009054906101000a900473ffffffffffffffffffffffffffffffffffffffff1673ffffffffffffffffffffffffffffffffffffffff16145b806118f05750600860008273ffffffffffffffffffffffffffffffffffffffff1673ffffffffffffffffffffffffffffffffffffffff16815260200190815260200160002060008573ffffffffffffffffffffffffffffffffffffffff1673ffffffffffffffffffffffffffffffffffffffff16815260200190815260200160002060009054906101000a900460ff165b91505092915050565b60008073ffffffffffffffffffffffffffffffffffffffff166006600084815260200190815260200160002060009054906101000a900473ffffffffffffffffffffffffffffffffffffffff1673ffffffffffffffffffffffffffffffffffffffff1614159050919050565b600760008373ffffffffffffffffffffffffffffffffffffffff1673ffffffffffffffffffffffffffffffffffffffff16815260200190815260200160002060008154809291906119b590612d75565b9190505550600073ffffffffffffffffffffffffffffffffffffffff168373ffffffffffffffffffffffffffffffffffffffff1614611a4457600760008473ffffffffffffffffffffffffffffffffffffffff1673ffffffffffffffffffffffffffffffffffffffff1681526020019081526020016000206000815480929190611a3e90612d19565b91905055505b816006600083815260200190815260200160002060006101000a81548173ffffffffffffffffffffffffffffffffffffffff021916908373ffffffffffffffffffffffffffffffffffffffff160217905550808273ffffffffffffffffffffffffffffffffffffffff168473ffffffffffffffffffffffffffffffffffffffff167fddf252ad1be2c89b69c2b068fc378daa952ba7f163c4a11628f55a4df523b3ef60405160405180910390a4505050565b611b01848484611965565b611b0d84848484611f58565b611b1657600080fd5b50505050565b611b24612072565b73ffffffffffffffffffffffffffffffffffffffff16611b42610cdd565b73ffffffffffffffffffffffffffffffffffffffff1614611b98576040517f08c379a0000000000000000000000000000000000000000000000000000000008152600401611b8f906129b7565b60405180910390fd5b565b60008060009054906101000a900473ffffffffffffffffffffffffffffffffffffffff169050816000806101000a81548173ffffffffffffffffffffffffffffffffffffffff021916908373ffffffffffffffffffffffffffffffffffffffff1602179055508173ffffffffffffffffffffffffffffffffffffffff168173ffffffffffffffffffffffffffffffffffffffff167f8be0079c531659141344cd1fd0a4f28419497f9722a3daafe3b4186f6b6457e060405160405180910390a35050565b8173ffffffffffffffffffffffffffffffffffffffff163373ffffffffffffffffffffffffffffffffffffffff161415611ccd576040517f08c379a0000000000000000000000000000000000000000000000000000000008152600401611cc490612977565b60405180910390fd5b80600860003373ffffffffffffffffffffffffffffffffffffffff1673ffffffffffffffffffffffffffffffffffffffff16815260200190815260200160002060008473ffffffffffffffffffffffffffffffffffffffff1673ffffffffffffffffffffffffffffffffffffffff16815260200190815260200160002060006101000a81548160ff0219169083151502179055508173ffffffffffffffffffffffffffffffffffffffff168373ffffffffffffffffffffffffffffffffffffffff167f17307eab39ab6107e8899845ad3d59bd9653f200f220920489ca2b5937696c3183604051611dbe91906128da565b60405180910390a3505050565b6000806040518060a001604052808881526020014267ffffffffffffffff1681526020018763ffffffff1681526020018663ffffffff1681526020018561ffff16815250905060048190806001815401808255809150506001900390600052602060002090600202016000909190919091506000820151816000015560208201518160010160006101000a81548167ffffffffffffffff021916908367ffffffffffffffff16021790555060408201518160010160086101000a81548163ffffffff021916908363ffffffff160217905550606082015181600101600c6101000a81548163ffffffff021916908363ffffffff16021790555060808201518160010160106101000a81548161ffff021916908361ffff160217905550505060006001600480549050611efd9190612c3e565b90507f0a5311bd2a6608f08a180df2ee7c5946819a649b204b554bb8e39825b2c50ad5848289898c604051611f36959493929190612887565b60405180910390a1611f4a60008583611965565b809250505095945050505050565b6000611f638461207a565b611f70576001905061206a565b60008473ffffffffffffffffffffffffffffffffffffffff1663150b7a02338887876040518563ffffffff1660e01b8152600401611fb1949392919061283b565b602060405180830381600087803b158015611fcb57600080fd5b505af1158015611fdf573d6000803e3d6000fd5b505050506040513d601f19601f82011682018060405250810190612003919061231b565b90507f150b7a023d4804d13e8c85fb27262cb750cf6ba9f9dd3bb30d90f482ceeb4b1f7bffffffffffffffffffffffffffffffffffffffffffffffffffffffff1916817bffffffffffffffffffffffffffffffffffffffffffffffffffffffff1916149150505b949350505050565b600033905090565b600080823b905060008163ffffffff1611915050919050565b6000813590506120a281612e8d565b92915050565b6000813590506120b781612ea4565b92915050565b6000813590506120cc81612ebb565b92915050565b6000815190506120e181612ebb565b92915050565b60008083601f8401126120f957600080fd5b8235905067ffffffffffffffff81111561211257600080fd5b60208301915083600182028301111561212a57600080fd5b9250929050565b60008135905061214081612ed2565b92915050565b60006020828403121561215857600080fd5b600061216684828501612093565b91505092915050565b6000806040838503121561218257600080fd5b600061219085828601612093565b92505060206121a185828601612093565b9150509250929050565b6000806000606084860312156121c057600080fd5b60006121ce86828701612093565b93505060206121df86828701612093565b92505060406121f086828701612131565b9150509250925092565b60008060008060006080868803121561221257600080fd5b600061222088828901612093565b955050602061223188828901612093565b945050604061224288828901612131565b935050606086013567ffffffffffffffff81111561225f57600080fd5b61226b888289016120e7565b92509250509295509295909350565b6000806040838503121561228d57600080fd5b600061229b85828601612093565b92505060206122ac858286016120a8565b9150509250929050565b600080604083850312156122c957600080fd5b60006122d785828601612093565b92505060206122e885828601612131565b9150509250929050565b60006020828403121561230457600080fd5b6000612312848285016120bd565b91505092915050565b60006020828403121561232d57600080fd5b600061233b848285016120d2565b91505092915050565b60006020828403121561235657600080fd5b600061236484828501612131565b91505092915050565b6000806040838503121561238057600080fd5b600061238e85828601612131565b925050602061239f85828601612131565b9150509250929050565b6123b281612c72565b82525050565b6123c181612c84565b82525050565b60006123d282612b25565b6123dc8185612b3b565b93506123ec818560208601612ce6565b6123f581612e7c565b840191505092915050565b600061240b82612b30565b6124158185612b4c565b9350612425818560208601612ce6565b61242e81612e7c565b840191505092915050565b6000612446602683612b4c565b91507f4f776e61626c653a206e6577206f776e657220697320746865207a65726f206160008301527f64647265737300000000000000000000000000000000000000000000000000006020830152604082019050919050565b60006124ac601983612b4c565b91507f43616e6e6f742073656e6420746f20796f757273656c766573000000000000006000830152602082019050919050565b60006124ec601383612b4c565b91507f4e6f7420612076616c696420746f6b656e4964000000000000000000000000006000830152602082019050919050565b600061252c601983612b4c565b91507f4552433732313a20617070726f766520746f2063616c6c6572000000000000006000830152602082019050919050565b600061256c601b83612b4c565b91507f546f2061646472657373206d75737420626520646566696e65642e00000000006000830152602082019050919050565b60006125ac602083612b4c565b91507f4f776e61626c653a2063616c6c6572206973206e6f7420746865206f776e65726000830152602082019050919050565b60006125ec602283612b4c565b91507f5265636965766572206d757374206e6f7420626520646561642061646472657360008301527f73210000000000000000000000000000000000000000000000000000000000006020830152604082019050919050565b6000612652601783612b4c565b91507f596f7520646f6e74206f776e20746865736520636174730000000000000000006000830152602082019050919050565b6000612692602183612b4c565b91507f4552433732313a20617070726f76616c20746f2063757272656e74206f776e6560008301527f72000000000000000000000000000000000000000000000000000000000000006020830152604082019050919050565b60006126f8601783612b4c565b91507f546f6b656e20496420646f6573206e6f742065786973740000000000000000006000830152602082019050919050565b6000612738602683612b4c565b91507f43616e6e6f74207472616e7366657220746f2074686520636f6e74726163742060008301527f697473656c6600000000000000000000000000000000000000000000000000006020830152604082019050919050565b600061279e601d83612b4c565b91507f43616e6e6f742073656e6420746f6b656e20796f75206e6f74206f776e0000006000830152602082019050919050565b60006127de601f83612b4c565b91507f43616e6e6f74206265206f776e6572206f66207a65726f2061646472657373006000830152602082019050919050565b61281a81612cdc565b82525050565b600060208201905061283560008301846123a9565b92915050565b600060808201905061285060008301876123a9565b61285d60208301866123a9565b61286a6040830185612811565b818103606083015261287c81846123c7565b905095945050505050565b600060a08201905061289c60008301886123a9565b6128a96020830187612811565b6128b66040830186612811565b6128c36060830185612811565b6128d06080830184612811565b9695505050505050565b60006020820190506128ef60008301846123b8565b92915050565b6000602082019050818103600083015261290f8184612400565b905092915050565b6000602082019050818103600083015261293081612439565b9050919050565b600060208201905081810360008301526129508161249f565b9050919050565b60006020820190508181036000830152612970816124df565b9050919050565b600060208201905081810360008301526129908161251f565b9050919050565b600060208201905081810360008301526129b08161255f565b9050919050565b600060208201905081810360008301526129d08161259f565b9050919050565b600060208201905081810360008301526129f0816125df565b9050919050565b60006020820190508181036000830152612a1081612645565b9050919050565b60006020820190508181036000830152612a3081612685565b9050919050565b60006020820190508181036000830152612a50816126eb565b9050919050565b60006020820190508181036000830152612a708161272b565b9050919050565b60006020820190508181036000830152612a9081612791565b9050919050565b60006020820190508181036000830152612ab0816127d1565b9050919050565b6000602082019050612acc6000830184612811565b92915050565b600060a082019050612ae76000830188612811565b612af46020830187612811565b612b016040830186612811565b612b0e6060830185612811565b612b1b6080830184612811565b9695505050505050565b600081519050919050565b600081519050919050565b600082825260208201905092915050565b600082825260208201905092915050565b6000612b6882612cdc565b9150612b7383612cdc565b9250827fffffffffffffffffffffffffffffffffffffffffffffffffffffffffffffffff03821115612ba857612ba7612def565b5b828201905092915050565b6000612bbe82612cdc565b9150612bc983612cdc565b925082612bd957612bd8612e1e565b5b828204905092915050565b6000612bef82612cdc565b9150612bfa83612cdc565b9250817fffffffffffffffffffffffffffffffffffffffffffffffffffffffffffffffff0483118215151615612c3357612c32612def565b5b828202905092915050565b6000612c4982612cdc565b9150612c5483612cdc565b925082821015612c6757612c66612def565b5b828203905092915050565b6000612c7d82612cbc565b9050919050565b60008115159050919050565b60007fffffffff0000000000000000000000000000000000000000000000000000000082169050919050565b600073ffffffffffffffffffffffffffffffffffffffff82169050919050565b6000819050919050565b60005b83811015612d04578082015181840152602081019050612ce9565b83811115612d13576000848401525b50505050565b6000612d2482612cdc565b91506000821415612d3857612d37612def565b5b600182039050919050565b60006002820490506001821680612d5b57607f821691505b60208210811415612d6f57612d6e612e4d565b5b50919050565b6000612d8082612cdc565b91507fffffffffffffffffffffffffffffffffffffffffffffffffffffffffffffffff821415612db357612db2612def565b5b600182019050919050565b6000612dc982612cdc565b9150612dd483612cdc565b925082612de457612de3612e1e565b5b828206905092915050565b7f4e487b7100000000000000000000000000000000000000000000000000000000600052601160045260246000fd5b7f4e487b7100000000000000000000000000000000000000000000000000000000600052601260045260246000fd5b7f4e487b7100000000000000000000000000000000000000000000000000000000600052602260045260246000fd5b6000601f19601f8301169050919050565b612e9681612c72565b8114612ea157600080fd5b50565b612ead81612c84565b8114612eb857600080fd5b50565b612ec481612c90565b8114612ecf57600080fd5b50565b612edb81612cdc565b8114612ee657600080fd5b5056fea26469706673582212204622d50a557edefba34c462800b71aa18b57448da6ac2441bdae38a4abace99064736f6c63430008000033",
  "immutableReferences": {},
  "source": "// SPDX-License-Identifier: MIT\npragma solidity ^0.8.0;\n\nimport \"@openzeppelin/contracts/token/ERC721/IERC721.sol\";\nimport \"@openzeppelin/contracts/token/ERC721/IERC721Receiver.sol\";\nimport \"@openzeppelin/contracts/access/Ownable.sol\";\n\ncontract KittyContract is IERC721, Ownable {\n    string public TokenName = \"HoeToken\";\n    string public TokenSymbol = \"HOE\";\n    uint256 public constant CREATION_LIMIT_GEN0 = 10;\n    uint256 public gen0Counter;\n\n    bytes4 internal constant MAGIC_ERC721_RECEIVED =\n        bytes4(keccak256(\"onERC721Received(address,address,uint256,bytes)\"));\n\n    bytes4 private constant _INTERFACE_ID_ERC721 = 0x80ac58cd;\n\n    bytes4 private constant _INTERFACE_ID_ERC165 = 0x01ffc9a7;\n\n    struct Kitty {\n        uint256 genes;\n        uint64 birthTime;\n        uint32 mumId;\n        uint32 dadId;\n        uint16 generation;\n    }\n\n    Kitty[] internal kitties;\n\n    mapping(uint256 => address) public tokenApprovals;\n    mapping(uint256 => address) public kittyIndexToOwner;\n    mapping(address => uint256) public ownerTokenCount;\n    mapping(address => mapping(address => bool)) public operatorApprovals;\n\n    event Birth(\n        address owner,\n        uint256 kittenId,\n        uint256 mumId,\n        uint256 dadId,\n        uint256 genes\n    );\n\n    function supportsInterface(bytes4 _interfaceId)\n        external\n        pure\n        override\n        returns (bool)\n    {\n        return (_interfaceId == _INTERFACE_ID_ERC721 ||\n            _interfaceId == _INTERFACE_ID_ERC165);\n    }\n\n    function createKittyGen0(uint256 _genes)\n        public\n        onlyOwner\n        returns (uint256)\n    {\n        require(gen0Counter < CREATION_LIMIT_GEN0);\n\n        gen0Counter++;\n\n        return _createKitty(_genes, 0, 0, 0, msg.sender);\n    }\n\n    //Notice all the inputs are 256 bits verse the smaller uint's each property takes in struct...\n    //this is because it is easier to input a 256 number, than convert it to say uint32 than it is to input 32 from getgo\n    function _createKitty(\n        uint256 _genes,\n        uint256 _mumId,\n        uint256 _dadId,\n        uint256 _generation,\n        address _owner\n    ) private returns (uint256) {\n        Kitty memory _kitty = Kitty({\n            genes: _genes,\n            birthTime: uint64(block.timestamp),\n            mumId: uint32(_mumId),\n            dadId: uint32(_dadId),\n            generation: uint16(_generation)\n        });\n        //First kat will have an id of 0, so we will do -1.\n        kitties.push(_kitty);\n\n        uint256 newKittenId = kitties.length - 1;\n\n        emit Birth(_owner, newKittenId, _mumId, _dadId, _genes);\n\n        _transfer(address(0), _owner, newKittenId);\n\n        return newKittenId;\n    }\n\n    function breed(uint256 _dadId, uint256 _mumId) public returns (uint256) {\n        require(\n            owns(msg.sender, _dadId) && owns(msg.sender, _mumId),\n            \"You dont own these cats\"\n        );\n\n        uint256 dadGeneration = kitties[_dadId].generation;\n        uint256 mumGeneration = kitties[_mumId].generation;\n        uint256 newGeneration;\n        if (dadGeneration > mumGeneration) {\n            newGeneration = dadGeneration++;\n        } else {\n            newGeneration = mumGeneration++;\n        }\n\n        uint256 dadDna = kitties[_dadId].genes;\n        uint256 mumDna = kitties[_mumId].genes;\n        uint256 newDna = _mixDna(dadDna, mumDna);\n\n        uint256 mintedCat = _createKitty(\n            newDna,\n            _mumId,\n            _dadId,\n            newGeneration,\n            msg.sender\n        );\n\n        return mintedCat;\n    }\n\n    function _mixDna(uint256 _dadDna, uint256 _mumDna)\n        public\n        pure\n        returns (uint256)\n    {\n        //dadDna 11 22 33 44 55 66 77 88 ... Dividing by 100000000 will leave use with the fist 8 (11, 22, 33, 44)\n        //mumDna 88 77 66 55 44 33 22 11 ... Modulo (%) 10000000 will leav use with the last 8 (44, 33, 22, 11)\n\n        uint256 firstHalf = _dadDna / 100000000; //11 22 33 44\n        uint256 secondHalf = _mumDna % 100000000; //44 33 22 11\n        //If we have 10 + 20 and we want 1020, we can't add these together like 10 + 20 as this is 30\n        //We need to do 10 * 100 = 1000, then 1000 + 20 which will give us 1020.\n        //So if we set this up in Remix to test and past in mumDna and dadDna our newDan should be 1122334444332211\n\n        uint256 extendedDna = firstHalf * 100000000;\n        uint256 finalDna = extendedDna + secondHalf;\n        return finalDna;\n    }\n\n    //We could have just listed the types uint256, uint256, and then had a return statement at end with the names..\n    //but it is cleaner to list type and name this way and leave off the return statement with this many variables\n    function getKitty(uint256 _id)\n        external\n        view\n        returns (\n            uint256 genes,\n            uint256 birthTime,\n            uint256 mumId,\n            uint256 dadId,\n            uint256 generation\n        )\n    {\n        //we want to do \"storage\" here and not memory because we want to create a pointer to refer to our global storage\n        Kitty storage kitty = kitties[_id];\n        genes = kitty.genes;\n        birthTime = uint256(kitty.birthTime);\n        mumId = uint256(kitty.mumId);\n        dadId = uint256(kitty.dadId);\n        generation = uint256(kitty.generation);\n    }\n\n    function balanceOf(address ownerAddress)\n        external\n        view\n        override\n        returns (uint256 balance)\n    {\n        return ownerTokenCount[ownerAddress];\n    }\n\n    function totalSupply() external view returns (uint256) {\n        return kitties.length;\n    }\n\n    function name() external view returns (string memory) {\n        return TokenName;\n    }\n\n    function symbol() external view returns (string memory) {\n        return TokenSymbol;\n    }\n\n    function ownerOf(uint256 _tokenId)\n        external\n        view\n        override\n        returns (address)\n    {\n        address ownerAddress = kittyIndexToOwner[_tokenId];\n        require(ownerAddress != address(0), \"Cannot be owner of zero address\");\n        return ownerAddress;\n    }\n\n    function transfer(address _to, uint256 _tokenId) external {\n        require(_to != address(0), \"To address must be defined.\");\n        require(_to != address(this), \"Cannot transfer to the contract itself\");\n        require(owns(msg.sender, _tokenId), \"Cannot send token you not own\");\n        require(_to != msg.sender, \"Cannot send to yourselves\");\n\n        _transfer(msg.sender, _to, _tokenId);\n    }\n\n    function _transfer(\n        address _from,\n        address _to,\n        uint256 _tokenId\n    ) internal {\n        ownerTokenCount[_to]++;\n        if (_from != address(0)) {\n            ownerTokenCount[_from]--;\n        }\n        kittyIndexToOwner[_tokenId] = _to;\n        emit Transfer(_from, _to, _tokenId);\n    }\n\n    function approve(address _to, uint256 _tokenId) external override {\n        address ownerAddress = kittyIndexToOwner[_tokenId];\n        require(ownerAddress != address(0));\n        require(\n            owns(msg.sender, _tokenId) ||\n                isApprovedForAll(ownerAddress, msg.sender)\n        );\n        require(_to != msg.sender, \"ERC721: approval to current owner\");\n        _approve(_to, _tokenId);\n    }\n\n    function _approve(address _to, uint256 _tokenId) internal {\n        tokenApprovals[_tokenId] = _to;\n        emit Approval(msg.sender, _to, _tokenId);\n    }\n\n    function owns(address _claimant, uint256 _tokenId)\n        public\n        view\n        returns (bool)\n    {\n        return kittyIndexToOwner[_tokenId] == _claimant;\n    }\n\n    function setApprovalForAll(address _operator, bool _approved)\n        external\n        override\n    {\n        require(_operator != msg.sender);\n        _setApprovalForAll(msg.sender, _operator, _approved);\n    }\n\n    function _setApprovalForAll(\n        address _owner,\n        address _operator,\n        bool _approved\n    ) internal {\n        require(msg.sender != _operator, \"ERC721: approve to caller\");\n        operatorApprovals[msg.sender][_operator] = _approved;\n        emit ApprovalForAll(_owner, _operator, _approved);\n    }\n\n    function isApprovedForAll(address _ownerAddress, address _operator)\n        public\n        view\n        override\n        returns (bool)\n    {\n        return operatorApprovals[_ownerAddress][_operator];\n    }\n\n    function getApproved(uint256 _tokenId)\n        public\n        view\n        override\n        returns (address)\n    {\n        require(_tokenId < kitties.length);\n        return tokenApprovals[_tokenId];\n    }\n\n    function exists(uint256 _tokenId) internal view virtual returns (bool) {\n        return kittyIndexToOwner[_tokenId] != address(0);\n    }\n\n    function isApprovedOrOwner(address _spender, uint256 _tokenId)\n        internal\n        view\n        returns (bool)\n    {\n        require(exists(_tokenId), \"Token Id does not exist\");\n        address ownerAddress = kittyIndexToOwner[_tokenId];\n        return (_spender == ownerAddress ||\n            tokenApprovals[_tokenId] == _spender ||\n            operatorApprovals[ownerAddress][_spender]);\n    }\n\n    function transferFrom(\n        address _from,\n        address _to,\n        uint256 _tokenId\n    ) external override {\n        require(_to != address(0), \"Reciever must not be dead address!\");\n        require(\n            isApprovedOrOwner(_from, _tokenId) ||\n                isApprovedForAll(_from, msg.sender)\n        );\n        require(exists(_tokenId), \"Token Id does not exist\");\n\n        _transfer(_from, _to, _tokenId);\n    }\n\n    function _safeTransfer(\n        address _from,\n        address _to,\n        uint256 _tokenId,\n        bytes memory _data\n    ) internal {\n        _transfer(_from, _to, _tokenId);\n        require(_checkERC721Support(_from, _to, _tokenId, _data));\n    }\n\n    function _checkERC721Support(\n        address _from,\n        address _to,\n        uint256 _tokenId,\n        bytes memory _data\n    ) internal returns (bool) {\n        if (!_isContract(_to)) {\n            return true;\n        }\n        //Call onERC721Received in the _to contract\n        bytes4 returnData = IERC721Receiver(_to).onERC721Received(\n            msg.sender,\n            _from,\n            _tokenId,\n            _data\n        );\n        //Check return value\n        return returnData == MAGIC_ERC721_RECEIVED;\n    }\n\n    //Need to check codesize > 0 here...\n    function _isContract(address _to) internal view returns (bool) {\n        uint32 size;\n        assembly {\n            size := extcodesize(_to)\n        }\n        return size > 0;\n    }\n\n    function safeTransferFrom(\n        address _from,\n        address _to,\n        uint256 _tokenId,\n        bytes calldata _data\n    ) external override {\n        require(_to != address(0));\n        require(exists(_tokenId), \"Not a valid tokenId\");\n        require(_tokenId < kitties.length);\n        require(\n            msg.sender == _from ||\n                isApprovedOrOwner(_from, _tokenId) ||\n                isApprovedForAll(_from, msg.sender)\n        );\n        _safeTransfer(_from, _to, _tokenId, _data);\n    }\n\n    function safeTransferFrom(\n        address _from,\n        address _to,\n        uint256 _tokenId\n    ) external override {\n        require(owns(_from, _tokenId));\n        require(_to != address(0));\n        require(\n            msg.sender == _from ||\n                isApprovedOrOwner(_from, _tokenId) ||\n                isApprovedForAll(_from, msg.sender)\n        );\n        require(_tokenId < kitties.length);\n\n        _safeTransfer(_from, _to, _tokenId, \"\");\n    }\n}\n",
  "sourcePath": "/Users/josephdeangeloi/Documents/IVAN ON TECH ACADEMY/Build An NFT Marketplace/KittiesProject/contracts/KittyContract.sol",
  "compiler": {
    "name": "solc",
    "version": "0.8.0+commit.c7dfd78e.Emscripten.clang"
  },
  "schemaVersion": "3.4.6",
  "updatedAt": "2022-08-08T17:42:53.007Z",
  "networkType": "ethereum",
  "devdoc": {
    "kind": "dev",
    "methods": {
      "owner()": {
        "details": "Returns the address of the current owner."
      },
      "renounceOwnership()": {
        "details": "Leaves the contract without owner. It will not be possible to call `onlyOwner` functions anymore. Can only be called by the current owner. NOTE: Renouncing ownership will leave the contract without an owner, thereby removing any functionality that is only available to the owner."
      },
      "transferOwnership(address)": {
        "details": "Transfers ownership of the contract to a new account (`newOwner`). Can only be called by the current owner."
      }
    },
    "version": 1
  },
  "userdoc": {
    "kind": "user",
    "methods": {},
    "version": 1
  }
}